{
  "_format": "hh-sol-artifact-1",
  "contractName": "SecureStorage",
  "sourceName": "contracts/SecureStorage.sol",
  "abi": [
    {
      "inputs": [],
      "name": "Unapproved",
      "type": "error"
    },
    {
      "inputs": [
        {
          "internalType": "address",
          "name": "user_",
          "type": "address"
        }
      ],
      "name": "getRoot",
      "outputs": [
        {
          "internalType": "bytes32",
          "name": "",
          "type": "bytes32"
        }
      ],
      "stateMutability": "view",
      "type": "function"
    },
    {
      "inputs": [
        {
          "internalType": "bytes32",
          "name": "root_",
          "type": "bytes32"
        }
      ],
      "name": "setRoot",
      "outputs": [],
      "stateMutability": "nonpayable",
      "type": "function"
    },
    {
      "inputs": [
        {
          "internalType": "address",
          "name": "user_",
          "type": "address"
        },
        {
          "internalType": "bytes32[]",
          "name": "proof_",
          "type": "bytes32[]"
        },
        {
          "internalType": "bytes32",
          "name": "question_",
          "type": "bytes32"
        }
      ],
      "name": "validate",
      "outputs": [
        {
          "internalType": "bool",
          "name": "",
          "type": "bool"
        }
      ],
      "stateMutability": "view",
      "type": "function"
    }
  ],
  "bytecode": "0x608060405234801561001057600080fd5b50610318806100206000396000f3fe608060405234801561001057600080fd5b50600436106100415760003560e01c8063079cf76e1461004657806398ede9b814610082578063dab5f340146100a5575b600080fd5b61006f6100543660046101e5565b6001600160a01b031660009081526020819052604090205490565b6040519081526020015b60405180910390f35b610095610090366004610200565b6100c7565b6040519015158152602001610079565b6100c56100b336600461028c565b33600090815260208190526040902055565b005b6001600160a01b0384166000908152602081815260408083205490516bffffffffffffffffffffffff193360601b16928101929092526034820184905261012a918691869160540160405160208183030381529060405280519060200120610133565b95945050505050565b60008261014186868561014b565b1495945050505050565b600081815b8481101561018e5761017a8287878481811061016e5761016e6102a5565b90506020020135610197565b915080610186816102bb565b915050610150565b50949350505050565b60008183106101b35760008281526020849052604090206101c2565b60008381526020839052604090205b9392505050565b80356001600160a01b03811681146101e057600080fd5b919050565b6000602082840312156101f757600080fd5b6101c2826101c9565b6000806000806060858703121561021657600080fd5b61021f856101c9565b9350602085013567ffffffffffffffff8082111561023c57600080fd5b818701915087601f83011261025057600080fd5b81358181111561025f57600080fd5b8860208260051b850101111561027457600080fd5b95986020929092019750949560400135945092505050565b60006020828403121561029e57600080fd5b5035919050565b634e487b7160e01b600052603260045260246000fd5b6000600182016102db57634e487b7160e01b600052601160045260246000fd5b506001019056fea2646970667358221220f87037f1a0a92b2cfa140749c7f1c5e444534c0216bbae011f1f0051ed1c1d6064736f6c634300080e0033",
  "linkReferences": {},
  "deployedLinkReferences": {}
}